{
  "contractName": "ImageShowcase",
  "abi": [
    {
      "inputs": [],
      "stateMutability": "nonpayable",
      "type": "constructor"
    },
    {
      "anonymous": false,
      "inputs": [
        {
          "indexed": true,
          "internalType": "address",
          "name": "owner",
          "type": "address"
        },
        {
          "indexed": true,
          "internalType": "address",
          "name": "approved",
          "type": "address"
        },
        {
          "indexed": true,
          "internalType": "uint256",
          "name": "tokenId",
          "type": "uint256"
        }
      ],
      "name": "Approval",
      "type": "event"
    },
    {
      "anonymous": false,
      "inputs": [
        {
          "indexed": true,
          "internalType": "address",
          "name": "owner",
          "type": "address"
        },
        {
          "indexed": true,
          "internalType": "address",
          "name": "operator",
          "type": "address"
        },
        {
          "indexed": false,
          "internalType": "bool",
          "name": "approved",
          "type": "bool"
        }
      ],
      "name": "ApprovalForAll",
      "type": "event"
    },
    {
      "anonymous": false,
      "inputs": [
        {
          "indexed": false,
          "internalType": "uint256",
          "name": "id",
          "type": "uint256"
        },
        {
          "indexed": false,
          "internalType": "string",
          "name": "hash",
          "type": "string"
        },
        {
          "indexed": false,
          "internalType": "string",
          "name": "description",
          "type": "string"
        },
        {
          "indexed": false,
          "internalType": "uint256",
          "name": "tipAmount",
          "type": "uint256"
        },
        {
          "indexed": false,
          "internalType": "uint256",
          "name": "timestamp",
          "type": "uint256"
        },
        {
          "indexed": false,
          "internalType": "address payable",
          "name": "author",
          "type": "address"
        }
      ],
      "name": "ImageCreated",
      "type": "event"
    },
    {
      "anonymous": false,
      "inputs": [
        {
          "indexed": false,
          "internalType": "uint256",
          "name": "id",
          "type": "uint256"
        },
        {
          "indexed": false,
          "internalType": "uint256",
          "name": "timestamp",
          "type": "uint256"
        },
        {
          "indexed": false,
          "internalType": "address",
          "name": "author",
          "type": "address"
        }
      ],
      "name": "ImageRemoved",
      "type": "event"
    },
    {
      "anonymous": false,
      "inputs": [
        {
          "indexed": false,
          "internalType": "uint256",
          "name": "id",
          "type": "uint256"
        },
        {
          "indexed": false,
          "internalType": "uint256",
          "name": "tipAmount",
          "type": "uint256"
        },
        {
          "indexed": false,
          "internalType": "uint256",
          "name": "timestamp",
          "type": "uint256"
        },
        {
          "indexed": false,
          "internalType": "address payable",
          "name": "author",
          "type": "address"
        }
      ],
      "name": "ImageTipped",
      "type": "event"
    },
    {
      "anonymous": false,
      "inputs": [
        {
          "indexed": true,
          "internalType": "address",
          "name": "previousOwner",
          "type": "address"
        },
        {
          "indexed": true,
          "internalType": "address",
          "name": "newOwner",
          "type": "address"
        }
      ],
      "name": "OwnershipTransferred",
      "type": "event"
    },
    {
      "anonymous": false,
      "inputs": [
        {
          "indexed": true,
          "internalType": "address",
          "name": "from",
          "type": "address"
        },
        {
          "indexed": true,
          "internalType": "address",
          "name": "to",
          "type": "address"
        },
        {
          "indexed": true,
          "internalType": "uint256",
          "name": "tokenId",
          "type": "uint256"
        }
      ],
      "name": "Transfer",
      "type": "event"
    },
    {
      "inputs": [
        {
          "internalType": "address",
          "name": "to",
          "type": "address"
        },
        {
          "internalType": "uint256",
          "name": "tokenId",
          "type": "uint256"
        }
      ],
      "name": "approve",
      "outputs": [],
      "stateMutability": "nonpayable",
      "type": "function"
    },
    {
      "inputs": [
        {
          "internalType": "address",
          "name": "owner",
          "type": "address"
        }
      ],
      "name": "balanceOf",
      "outputs": [
        {
          "internalType": "uint256",
          "name": "",
          "type": "uint256"
        }
      ],
      "stateMutability": "view",
      "type": "function",
      "constant": true
    },
    {
      "inputs": [
        {
          "internalType": "uint256",
          "name": "tokenId",
          "type": "uint256"
        }
      ],
      "name": "getApproved",
      "outputs": [
        {
          "internalType": "address",
          "name": "",
          "type": "address"
        }
      ],
      "stateMutability": "view",
      "type": "function",
      "constant": true
    },
    {
      "inputs": [],
      "name": "imageCount",
      "outputs": [
        {
          "internalType": "uint256",
          "name": "",
          "type": "uint256"
        }
      ],
      "stateMutability": "view",
      "type": "function",
      "constant": true
    },
    {
      "inputs": [
        {
          "internalType": "uint256",
          "name": "",
          "type": "uint256"
        }
      ],
      "name": "images",
      "outputs": [
        {
          "internalType": "uint256",
          "name": "id",
          "type": "uint256"
        },
        {
          "internalType": "string",
          "name": "hash",
          "type": "string"
        },
        {
          "internalType": "string",
          "name": "description",
          "type": "string"
        },
        {
          "internalType": "uint256",
          "name": "tipAmount",
          "type": "uint256"
        },
        {
          "internalType": "uint256",
          "name": "timestamp",
          "type": "uint256"
        },
        {
          "internalType": "address payable",
          "name": "author",
          "type": "address"
        }
      ],
      "stateMutability": "view",
      "type": "function",
      "constant": true
    },
    {
      "inputs": [
        {
          "internalType": "address",
          "name": "owner",
          "type": "address"
        },
        {
          "internalType": "address",
          "name": "operator",
          "type": "address"
        }
      ],
      "name": "isApprovedForAll",
      "outputs": [
        {
          "internalType": "bool",
          "name": "",
          "type": "bool"
        }
      ],
      "stateMutability": "view",
      "type": "function",
      "constant": true
    },
    {
      "inputs": [],
      "name": "name",
      "outputs": [
        {
          "internalType": "string",
          "name": "",
          "type": "string"
        }
      ],
      "stateMutability": "view",
      "type": "function",
      "constant": true
    },
    {
      "inputs": [],
      "name": "owner",
      "outputs": [
        {
          "internalType": "address",
          "name": "",
          "type": "address"
        }
      ],
      "stateMutability": "view",
      "type": "function",
      "constant": true
    },
    {
      "inputs": [
        {
          "internalType": "uint256",
          "name": "tokenId",
          "type": "uint256"
        }
      ],
      "name": "ownerOf",
      "outputs": [
        {
          "internalType": "address",
          "name": "",
          "type": "address"
        }
      ],
      "stateMutability": "view",
      "type": "function",
      "constant": true
    },
    {
      "inputs": [],
      "name": "renounceOwnership",
      "outputs": [],
      "stateMutability": "nonpayable",
      "type": "function"
    },
    {
      "inputs": [
        {
          "internalType": "address",
          "name": "from",
          "type": "address"
        },
        {
          "internalType": "address",
          "name": "to",
          "type": "address"
        },
        {
          "internalType": "uint256",
          "name": "tokenId",
          "type": "uint256"
        }
      ],
      "name": "safeTransferFrom",
      "outputs": [],
      "stateMutability": "nonpayable",
      "type": "function"
    },
    {
      "inputs": [
        {
          "internalType": "address",
          "name": "from",
          "type": "address"
        },
        {
          "internalType": "address",
          "name": "to",
          "type": "address"
        },
        {
          "internalType": "uint256",
          "name": "tokenId",
          "type": "uint256"
        },
        {
          "internalType": "bytes",
          "name": "_data",
          "type": "bytes"
        }
      ],
      "name": "safeTransferFrom",
      "outputs": [],
      "stateMutability": "nonpayable",
      "type": "function"
    },
    {
      "inputs": [
        {
          "internalType": "address",
          "name": "operator",
          "type": "address"
        },
        {
          "internalType": "bool",
          "name": "approved",
          "type": "bool"
        }
      ],
      "name": "setApprovalForAll",
      "outputs": [],
      "stateMutability": "nonpayable",
      "type": "function"
    },
    {
      "inputs": [
        {
          "internalType": "bytes4",
          "name": "interfaceId",
          "type": "bytes4"
        }
      ],
      "name": "supportsInterface",
      "outputs": [
        {
          "internalType": "bool",
          "name": "",
          "type": "bool"
        }
      ],
      "stateMutability": "view",
      "type": "function",
      "constant": true
    },
    {
      "inputs": [],
      "name": "symbol",
      "outputs": [
        {
          "internalType": "string",
          "name": "",
          "type": "string"
        }
      ],
      "stateMutability": "view",
      "type": "function",
      "constant": true
    },
    {
      "inputs": [
        {
          "internalType": "uint256",
          "name": "tokenId",
          "type": "uint256"
        }
      ],
      "name": "tokenURI",
      "outputs": [
        {
          "internalType": "string",
          "name": "",
          "type": "string"
        }
      ],
      "stateMutability": "view",
      "type": "function",
      "constant": true
    },
    {
      "inputs": [
        {
          "internalType": "address",
          "name": "from",
          "type": "address"
        },
        {
          "internalType": "address",
          "name": "to",
          "type": "address"
        },
        {
          "internalType": "uint256",
          "name": "tokenId",
          "type": "uint256"
        }
      ],
      "name": "transferFrom",
      "outputs": [],
      "stateMutability": "nonpayable",
      "type": "function"
    },
    {
      "inputs": [
        {
          "internalType": "address",
          "name": "newOwner",
          "type": "address"
        }
      ],
      "name": "transferOwnership",
      "outputs": [],
      "stateMutability": "nonpayable",
      "type": "function"
    },
    {
      "inputs": [
        {
          "internalType": "string",
          "name": "_hash",
          "type": "string"
        },
        {
          "internalType": "string",
          "name": "_description",
          "type": "string"
        }
      ],
      "name": "uploadImage",
      "outputs": [],
      "stateMutability": "nonpayable",
      "type": "function"
    },
    {
      "inputs": [
        {
          "internalType": "uint256",
          "name": "_id",
          "type": "uint256"
        }
      ],
      "name": "tipImage",
      "outputs": [],
      "stateMutability": "payable",
      "type": "function",
      "payable": true
    },
    {
      "inputs": [
        {
          "internalType": "uint256",
          "name": "_id",
          "type": "uint256"
        }
      ],
      "name": "removeImage",
      "outputs": [],
      "stateMutability": "nonpayable",
      "type": "function"
    }
  ],
  "bytecode": "0x60806040523480156200001157600080fd5b506040518060400160405280600d81526020017f496d61676553686f7763617365000000000000000000000000000000000000008152506040518060400160405280600481526020017f44415050000000000000000000000000000000000000000000000000000000008152506200009e62000092620000d860201b60201c565b620000e060201b60201c565b8160019080519060200190620000b6929190620001a4565b508060029080519060200190620000cf929190620001a4565b505050620002b9565b600033905090565b60008060009054906101000a900473ffffffffffffffffffffffffffffffffffffffff169050816000806101000a81548173ffffffffffffffffffffffffffffffffffffffff021916908373ffffffffffffffffffffffffffffffffffffffff1602179055508173ffffffffffffffffffffffffffffffffffffffff168173ffffffffffffffffffffffffffffffffffffffff167f8be0079c531659141344cd1fd0a4f28419497f9722a3daafe3b4186f6b6457e060405160405180910390a35050565b828054620001b29062000283565b90600052602060002090601f016020900481019282620001d6576000855562000222565b82601f10620001f157805160ff191683800117855562000222565b8280016001018555821562000222579182015b828111156200022157825182559160200191906001019062000204565b5b50905062000231919062000235565b5090565b5b808211156200025057600081600090555060010162000236565b5090565b7f4e487b7100000000000000000000000000000000000000000000000000000000600052602260045260246000fd5b600060028204905060018216806200029c57607f821691505b60208210811415620002b357620002b262000254565b5b50919050565b6138a080620002c96000396000f3fe60806040526004361061012a5760003560e01c806384856482116100ab578063a22cb4651161006f578063a22cb465146103e8578063a91b831414610411578063b88d4fde1461043a578063c87b56dd14610463578063e985e9c5146104a0578063f2fde38b146104dd5761012a565b806384856482146102fc5780638b25261f1461033e5780638da5cb5b1461036757806392053b631461039257806395d89b41146103bd5761012a565b806323b872dd116100f257806323b872dd1461021957806342842e0e146102425780636352211e1461026b57806370a08231146102a8578063715018a6146102e55761012a565b806301ffc9a71461012f57806306fdde031461016c578063081812fc14610197578063092134fe146101d4578063095ea7b3146101f0575b600080fd5b34801561013b57600080fd5b506101566004803603810190610151919061234e565b610506565b6040516101639190612396565b60405180910390f35b34801561017857600080fd5b506101816105e8565b60405161018e919061244a565b60405180910390f35b3480156101a357600080fd5b506101be60048036038101906101b991906124a2565b61067a565b6040516101cb9190612510565b60405180910390f35b6101ee60048036038101906101e991906124a2565b6106ff565b005b3480156101fc57600080fd5b5061021760048036038101906102129190612557565b610a65565b005b34801561022557600080fd5b50610240600480360381019061023b9190612597565b610b7d565b005b34801561024e57600080fd5b5061026960048036038101906102649190612597565b610bdd565b005b34801561027757600080fd5b50610292600480360381019061028d91906124a2565b610bfd565b60405161029f9190612510565b60405180910390f35b3480156102b457600080fd5b506102cf60048036038101906102ca91906125ea565b610caf565b6040516102dc9190612626565b60405180910390f35b3480156102f157600080fd5b506102fa610d67565b005b34801561030857600080fd5b50610323600480360381019061031e91906124a2565b610def565b60405161033596959493929190612662565b60405180910390f35b34801561034a57600080fd5b50610365600480360381019061036091906124a2565b610f5b565b005b34801561037357600080fd5b5061037c6110c6565b6040516103899190612510565b60405180910390f35b34801561039e57600080fd5b506103a76110ef565b6040516103b49190612626565b60405180910390f35b3480156103c957600080fd5b506103d26110f5565b6040516103df919061244a565b60405180910390f35b3480156103f457600080fd5b5061040f600480360381019061040a91906126fd565b611187565b005b34801561041d57600080fd5b5061043860048036038101906104339190612872565b61119d565b005b34801561044657600080fd5b50610461600480360381019061045c919061298b565b611382565b005b34801561046f57600080fd5b5061048a600480360381019061048591906124a2565b6113e4565b604051610497919061244a565b60405180910390f35b3480156104ac57600080fd5b506104c760048036038101906104c29190612a0e565b611536565b6040516104d49190612396565b60405180910390f35b3480156104e957600080fd5b5061050460048036038101906104ff91906125ea565b6115ca565b005b60007f80ac58cd000000000000000000000000000000000000000000000000000000007bffffffffffffffffffffffffffffffffffffffffffffffffffffffff1916827bffffffffffffffffffffffffffffffffffffffffffffffffffffffff191614806105d157507f5b5e139f000000000000000000000000000000000000000000000000000000007bffffffffffffffffffffffffffffffffffffffffffffffffffffffff1916827bffffffffffffffffffffffffffffffffffffffffffffffffffffffff1916145b806105e157506105e0826116c2565b5b9050919050565b6060600180546105f790612a7d565b80601f016020809104026020016040519081016040528092919081815260200182805461062390612a7d565b80156106705780601f1061064557610100808354040283529160200191610670565b820191906000526020600020905b81548152906001019060200180831161065357829003601f168201915b5050505050905090565b60006106858261172c565b6106c4576040517f08c379a00000000000000000000000000000000000000000000000000000000081526004016106bb90612b21565b60405180910390fd5b6005600083815260200190815260200160002060009054906101000a900473ffffffffffffffffffffffffffffffffffffffff169050919050565b6000600860008381526020019081526020016000206040518060c00160405290816000820154815260200160018201805461073990612a7d565b80601f016020809104026020016040519081016040528092919081815260200182805461076590612a7d565b80156107b25780601f10610787576101008083540402835291602001916107b2565b820191906000526020600020905b81548152906001019060200180831161079557829003601f168201915b505050505081526020016002820180546107cb90612a7d565b80601f01602080910402602001604051908101604052809291908181526020018280546107f790612a7d565b80156108445780601f1061081957610100808354040283529160200191610844565b820191906000526020600020905b81548152906001019060200180831161082757829003601f168201915b5050505050815260200160038201548152602001600482015481526020016005820160009054906101000a900473ffffffffffffffffffffffffffffffffffffffff1673ffffffffffffffffffffffffffffffffffffffff1673ffffffffffffffffffffffffffffffffffffffff168152505090506000816080015111610900576040517f08c379a00000000000000000000000000000000000000000000000000000000081526004016108f790612b8d565b60405180910390fd5b60008160a0015190508073ffffffffffffffffffffffffffffffffffffffff166108fc349081150290604051600060405180830381858888f1935050505015801561094f573d6000803e3d6000fd5b503482606001516109609190612bdc565b82606001818152505081600860008581526020019081526020016000206000820151816000015560208201518160010190805190602001906109a39291906121ff565b5060408201518160020190805190602001906109c09291906121ff565b50606082015181600301556080820151816004015560a08201518160050160006101000a81548173ffffffffffffffffffffffffffffffffffffffff021916908373ffffffffffffffffffffffffffffffffffffffff1602179055509050507fe69867f14bcd9c515d8a552c30cd8732573c83f44579f29b4074591f6cac23868383606001514284604051610a589493929190612c32565b60405180910390a1505050565b6000610a7082610bfd565b90508073ffffffffffffffffffffffffffffffffffffffff168373ffffffffffffffffffffffffffffffffffffffff161415610ae1576040517f08c379a0000000000000000000000000000000000000000000000000000000008152600401610ad890612ce9565b60405180910390fd5b8073ffffffffffffffffffffffffffffffffffffffff16610b00611798565b73ffffffffffffffffffffffffffffffffffffffff161480610b2f5750610b2e81610b29611798565b611536565b5b610b6e576040517f08c379a0000000000000000000000000000000000000000000000000000000008152600401610b6590612d7b565b60405180910390fd5b610b7883836117a0565b505050565b610b8e610b88611798565b82611859565b610bcd576040517f08c379a0000000000000000000000000000000000000000000000000000000008152600401610bc490612e0d565b60405180910390fd5b610bd8838383611937565b505050565b610bf883838360405180602001604052806000815250611382565b505050565b6000806003600084815260200190815260200160002060009054906101000a900473ffffffffffffffffffffffffffffffffffffffff169050600073ffffffffffffffffffffffffffffffffffffffff168173ffffffffffffffffffffffffffffffffffffffff161415610ca6576040517f08c379a0000000000000000000000000000000000000000000000000000000008152600401610c9d90612e9f565b60405180910390fd5b80915050919050565b60008073ffffffffffffffffffffffffffffffffffffffff168273ffffffffffffffffffffffffffffffffffffffff161415610d20576040517f08c379a0000000000000000000000000000000000000000000000000000000008152600401610d1790612f31565b60405180910390fd5b600460008373ffffffffffffffffffffffffffffffffffffffff1673ffffffffffffffffffffffffffffffffffffffff168152602001908152602001600020549050919050565b610d6f611798565b73ffffffffffffffffffffffffffffffffffffffff16610d8d6110c6565b73ffffffffffffffffffffffffffffffffffffffff1614610de3576040517f08c379a0000000000000000000000000000000000000000000000000000000008152600401610dda90612f9d565b60405180910390fd5b610ded6000611b9e565b565b6008602052806000526040600020600091509050806000015490806001018054610e1890612a7d565b80601f0160208091040260200160405190810160405280929190818152602001828054610e4490612a7d565b8015610e915780601f10610e6657610100808354040283529160200191610e91565b820191906000526020600020905b815481529060010190602001808311610e7457829003601f168201915b505050505090806002018054610ea690612a7d565b80601f0160208091040260200160405190810160405280929190818152602001828054610ed290612a7d565b8015610f1f5780601f10610ef457610100808354040283529160200191610f1f565b820191906000526020600020905b815481529060010190602001808311610f0257829003601f168201915b5050505050908060030154908060040154908060050160009054906101000a900473ffffffffffffffffffffffffffffffffffffffff16905086565b610f63611798565b73ffffffffffffffffffffffffffffffffffffffff16610f816110c6565b73ffffffffffffffffffffffffffffffffffffffff1614610fd7576040517f08c379a0000000000000000000000000000000000000000000000000000000008152600401610fce90612f9d565b60405180910390fd5b60006008600083815260200190815260200160002060050160009054906101000a900473ffffffffffffffffffffffffffffffffffffffff1690506008600083815260200190815260200160002060008082016000905560018201600061103e9190612285565b60028201600061104e9190612285565b600382016000905560048201600090556005820160006101000a81549073ffffffffffffffffffffffffffffffffffffffff021916905550507f2af185fbdae7d148438548f592accac5ba59dcececa553a43ba03027fb4a3f708242836040516110ba93929190612fbd565b60405180910390a15050565b60008060009054906101000a900473ffffffffffffffffffffffffffffffffffffffff16905090565b60095481565b60606002805461110490612a7d565b80601f016020809104026020016040519081016040528092919081815260200182805461113090612a7d565b801561117d5780601f106111525761010080835404028352916020019161117d565b820191906000526020600020905b81548152906001019060200180831161116057829003601f168201915b5050505050905090565b611199611192611798565b8383611c62565b5050565b60008251116111e1576040517f08c379a00000000000000000000000000000000000000000000000000000000081526004016111d890613040565b60405180910390fd5b6000815111611225576040517f08c379a000000000000000000000000000000000000000000000000000000000815260040161121c906130ac565b60405180910390fd5b6040518060c001604052806009548152602001838152602001828152602001600081526020014281526020013373ffffffffffffffffffffffffffffffffffffffff168152506008600060095481526020019081526020016000206000820151816000015560208201518160010190805190602001906112a69291906121ff565b5060408201518160020190805190602001906112c39291906121ff565b50606082015181600301556080820151816004015560a08201518160050160006101000a81548173ffffffffffffffffffffffffffffffffffffffff021916908373ffffffffffffffffffffffffffffffffffffffff1602179055509050507f42cc51a071fdd0e58e31540df1d3f1333333778f33f4bd2b099d8d266f1a0c1360095483836000423360405161135e96959493929190613111565b60405180910390a16009600081548092919061137990613180565b91905055505050565b61139361138d611798565b83611859565b6113d2576040517f08c379a00000000000000000000000000000000000000000000000000000000081526004016113c990612e0d565b60405180910390fd5b6113de84848484611dcf565b50505050565b60606113ef8261172c565b61142e576040517f08c379a00000000000000000000000000000000000000000000000000000000081526004016114259061323b565b60405180910390fd5b600060076000848152602001908152602001600020805461144e90612a7d565b80601f016020809104026020016040519081016040528092919081815260200182805461147a90612a7d565b80156114c75780601f1061149c576101008083540402835291602001916114c7565b820191906000526020600020905b8154815290600101906020018083116114aa57829003601f168201915b5050505050905060006114d8611e2b565b90506000815114156114ee578192505050611531565b60008251111561152357808260405160200161150b929190613297565b60405160208183030381529060405292505050611531565b61152c84611e42565b925050505b919050565b6000600660008473ffffffffffffffffffffffffffffffffffffffff1673ffffffffffffffffffffffffffffffffffffffff16815260200190815260200160002060008373ffffffffffffffffffffffffffffffffffffffff1673ffffffffffffffffffffffffffffffffffffffff16815260200190815260200160002060009054906101000a900460ff16905092915050565b6115d2611798565b73ffffffffffffffffffffffffffffffffffffffff166115f06110c6565b73ffffffffffffffffffffffffffffffffffffffff1614611646576040517f08c379a000000000000000000000000000000000000000000000000000000000815260040161163d90612f9d565b60405180910390fd5b600073ffffffffffffffffffffffffffffffffffffffff168173ffffffffffffffffffffffffffffffffffffffff1614156116b6576040517f08c379a00000000000000000000000000000000000000000000000000000000081526004016116ad9061332d565b60405180910390fd5b6116bf81611b9e565b50565b60007f01ffc9a7000000000000000000000000000000000000000000000000000000007bffffffffffffffffffffffffffffffffffffffffffffffffffffffff1916827bffffffffffffffffffffffffffffffffffffffffffffffffffffffff1916149050919050565b60008073ffffffffffffffffffffffffffffffffffffffff166003600084815260200190815260200160002060009054906101000a900473ffffffffffffffffffffffffffffffffffffffff1673ffffffffffffffffffffffffffffffffffffffff1614159050919050565b600033905090565b816005600083815260200190815260200160002060006101000a81548173ffffffffffffffffffffffffffffffffffffffff021916908373ffffffffffffffffffffffffffffffffffffffff160217905550808273ffffffffffffffffffffffffffffffffffffffff1661181383610bfd565b73ffffffffffffffffffffffffffffffffffffffff167f8c5be1e5ebec7d5bd14f71427d1e84f3dd0314c0f7b2291e5b200ac8c7c3b92560405160405180910390a45050565b60006118648261172c565b6118a3576040517f08c379a000000000000000000000000000000000000000000000000000000000815260040161189a906133bf565b60405180910390fd5b60006118ae83610bfd565b90508073ffffffffffffffffffffffffffffffffffffffff168473ffffffffffffffffffffffffffffffffffffffff16148061191d57508373ffffffffffffffffffffffffffffffffffffffff166119058461067a565b73ffffffffffffffffffffffffffffffffffffffff16145b8061192e575061192d8185611536565b5b91505092915050565b8273ffffffffffffffffffffffffffffffffffffffff1661195782610bfd565b73ffffffffffffffffffffffffffffffffffffffff16146119ad576040517f08c379a00000000000000000000000000000000000000000000000000000000081526004016119a490613451565b60405180910390fd5b600073ffffffffffffffffffffffffffffffffffffffff168273ffffffffffffffffffffffffffffffffffffffff161415611a1d576040517f08c379a0000000000000000000000000000000000000000000000000000000008152600401611a14906134e3565b60405180910390fd5b611a28838383611ee9565b611a336000826117a0565b6001600460008573ffffffffffffffffffffffffffffffffffffffff1673ffffffffffffffffffffffffffffffffffffffff1681526020019081526020016000206000828254611a839190613503565b925050819055506001600460008473ffffffffffffffffffffffffffffffffffffffff1673ffffffffffffffffffffffffffffffffffffffff1681526020019081526020016000206000828254611ada9190612bdc565b92505081905550816003600083815260200190815260200160002060006101000a81548173ffffffffffffffffffffffffffffffffffffffff021916908373ffffffffffffffffffffffffffffffffffffffff160217905550808273ffffffffffffffffffffffffffffffffffffffff168473ffffffffffffffffffffffffffffffffffffffff167fddf252ad1be2c89b69c2b068fc378daa952ba7f163c4a11628f55a4df523b3ef60405160405180910390a4611b99838383611eee565b505050565b60008060009054906101000a900473ffffffffffffffffffffffffffffffffffffffff169050816000806101000a81548173ffffffffffffffffffffffffffffffffffffffff021916908373ffffffffffffffffffffffffffffffffffffffff1602179055508173ffffffffffffffffffffffffffffffffffffffff168173ffffffffffffffffffffffffffffffffffffffff167f8be0079c531659141344cd1fd0a4f28419497f9722a3daafe3b4186f6b6457e060405160405180910390a35050565b8173ffffffffffffffffffffffffffffffffffffffff168373ffffffffffffffffffffffffffffffffffffffff161415611cd1576040517f08c379a0000000000000000000000000000000000000000000000000000000008152600401611cc890613583565b60405180910390fd5b80600660008573ffffffffffffffffffffffffffffffffffffffff1673ffffffffffffffffffffffffffffffffffffffff16815260200190815260200160002060008473ffffffffffffffffffffffffffffffffffffffff1673ffffffffffffffffffffffffffffffffffffffff16815260200190815260200160002060006101000a81548160ff0219169083151502179055508173ffffffffffffffffffffffffffffffffffffffff168373ffffffffffffffffffffffffffffffffffffffff167f17307eab39ab6107e8899845ad3d59bd9653f200f220920489ca2b5937696c3183604051611dc29190612396565b60405180910390a3505050565b611dda848484611937565b611de684848484611ef3565b611e25576040517f08c379a0000000000000000000000000000000000000000000000000000000008152600401611e1c90613615565b60405180910390fd5b50505050565b606060405180602001604052806000815250905090565b6060611e4d8261172c565b611e8c576040517f08c379a0000000000000000000000000000000000000000000000000000000008152600401611e83906136a7565b60405180910390fd5b6000611e96611e2b565b90506000815111611eb65760405180602001604052806000815250611ee1565b80611ec08461207b565b604051602001611ed1929190613297565b6040516020818303038152906040525b915050919050565b505050565b505050565b6000611f148473ffffffffffffffffffffffffffffffffffffffff166121dc565b1561206e578373ffffffffffffffffffffffffffffffffffffffff1663150b7a02611f3d611798565b8786866040518563ffffffff1660e01b8152600401611f5f949392919061371c565b6020604051808303816000875af1925050508015611f9b57506040513d601f19601f82011682018060405250810190611f98919061377d565b60015b61201e573d8060008114611fcb576040519150601f19603f3d011682016040523d82523d6000602084013e611fd0565b606091505b50600081511415612016576040517f08c379a000000000000000000000000000000000000000000000000000000000815260040161200d90613615565b60405180910390fd5b805181602001fd5b63150b7a0260e01b7bffffffffffffffffffffffffffffffffffffffffffffffffffffffff1916817bffffffffffffffffffffffffffffffffffffffffffffffffffffffff191614915050612073565b600190505b949350505050565b606060008214156120c3576040518060400160405280600181526020017f300000000000000000000000000000000000000000000000000000000000000081525090506121d7565b600082905060005b600082146120f55780806120de90613180565b915050600a826120ee91906137d9565b91506120cb565b60008167ffffffffffffffff81111561211157612110612747565b5b6040519080825280601f01601f1916602001820160405280156121435781602001600182028036833780820191505090505b5090505b600085146121d05760018261215c9190613503565b9150600a8561216b919061380a565b60306121779190612bdc565b60f81b81838151811061218d5761218c61383b565b5b60200101907effffffffffffffffffffffffffffffffffffffffffffffffffffffffffffff1916908160001a905350600a856121c991906137d9565b9450612147565b8093505050505b919050565b6000808273ffffffffffffffffffffffffffffffffffffffff163b119050919050565b82805461220b90612a7d565b90600052602060002090601f01602090048101928261222d5760008555612274565b82601f1061224657805160ff1916838001178555612274565b82800160010185558215612274579182015b82811115612273578251825591602001919060010190612258565b5b50905061228191906122c5565b5090565b50805461229190612a7d565b6000825580601f106122a357506122c2565b601f0160209004906000526020600020908101906122c191906122c5565b5b50565b5b808211156122de5760008160009055506001016122c6565b5090565b6000604051905090565b600080fd5b600080fd5b60007fffffffff0000000000000000000000000000000000000000000000000000000082169050919050565b61232b816122f6565b811461233657600080fd5b50565b60008135905061234881612322565b92915050565b600060208284031215612364576123636122ec565b5b600061237284828501612339565b91505092915050565b60008115159050919050565b6123908161237b565b82525050565b60006020820190506123ab6000830184612387565b92915050565b600081519050919050565b600082825260208201905092915050565b60005b838110156123eb5780820151818401526020810190506123d0565b838111156123fa576000848401525b50505050565b6000601f19601f8301169050919050565b600061241c826123b1565b61242681856123bc565b93506124368185602086016123cd565b61243f81612400565b840191505092915050565b600060208201905081810360008301526124648184612411565b905092915050565b6000819050919050565b61247f8161246c565b811461248a57600080fd5b50565b60008135905061249c81612476565b92915050565b6000602082840312156124b8576124b76122ec565b5b60006124c68482850161248d565b91505092915050565b600073ffffffffffffffffffffffffffffffffffffffff82169050919050565b60006124fa826124cf565b9050919050565b61250a816124ef565b82525050565b60006020820190506125256000830184612501565b92915050565b612534816124ef565b811461253f57600080fd5b50565b6000813590506125518161252b565b92915050565b6000806040838503121561256e5761256d6122ec565b5b600061257c85828601612542565b925050602061258d8582860161248d565b9150509250929050565b6000806000606084860312156125b0576125af6122ec565b5b60006125be86828701612542565b93505060206125cf86828701612542565b92505060406125e08682870161248d565b9150509250925092565b600060208284031215612600576125ff6122ec565b5b600061260e84828501612542565b91505092915050565b6126208161246c565b82525050565b600060208201905061263b6000830184612617565b92915050565b600061264c826124cf565b9050919050565b61265c81612641565b82525050565b600060c0820190506126776000830189612617565b81810360208301526126898188612411565b9050818103604083015261269d8187612411565b90506126ac6060830186612617565b6126b96080830185612617565b6126c660a0830184612653565b979650505050505050565b6126da8161237b565b81146126e557600080fd5b50565b6000813590506126f7816126d1565b92915050565b60008060408385031215612714576127136122ec565b5b600061272285828601612542565b9250506020612733858286016126e8565b9150509250929050565b600080fd5b600080fd5b7f4e487b7100000000000000000000000000000000000000000000000000000000600052604160045260246000fd5b61277f82612400565b810181811067ffffffffffffffff8211171561279e5761279d612747565b5b80604052505050565b60006127b16122e2565b90506127bd8282612776565b919050565b600067ffffffffffffffff8211156127dd576127dc612747565b5b6127e682612400565b9050602081019050919050565b82818337600083830152505050565b6000612815612810846127c2565b6127a7565b90508281526020810184848401111561283157612830612742565b5b61283c8482856127f3565b509392505050565b600082601f8301126128595761285861273d565b5b8135612869848260208601612802565b91505092915050565b60008060408385031215612889576128886122ec565b5b600083013567ffffffffffffffff8111156128a7576128a66122f1565b5b6128b385828601612844565b925050602083013567ffffffffffffffff8111156128d4576128d36122f1565b5b6128e085828601612844565b9150509250929050565b600067ffffffffffffffff82111561290557612904612747565b5b61290e82612400565b9050602081019050919050565b600061292e612929846128ea565b6127a7565b90508281526020810184848401111561294a57612949612742565b5b6129558482856127f3565b509392505050565b600082601f8301126129725761297161273d565b5b813561298284826020860161291b565b91505092915050565b600080600080608085870312156129a5576129a46122ec565b5b60006129b387828801612542565b94505060206129c487828801612542565b93505060406129d58782880161248d565b925050606085013567ffffffffffffffff8111156129f6576129f56122f1565b5b612a028782880161295d565b91505092959194509250565b60008060408385031215612a2557612a246122ec565b5b6000612a3385828601612542565b9250506020612a4485828601612542565b9150509250929050565b7f4e487b7100000000000000000000000000000000000000000000000000000000600052602260045260246000fd5b60006002820490506001821680612a9557607f821691505b60208210811415612aa957612aa8612a4e565b5b50919050565b7f4552433732313a20617070726f76656420717565727920666f72206e6f6e657860008201527f697374656e7420746f6b656e0000000000000000000000000000000000000000602082015250565b6000612b0b602c836123bc565b9150612b1682612aaf565b604082019050919050565b60006020820190508181036000830152612b3a81612afe565b9050919050565b7f496e76616c696420696d6167652e000000000000000000000000000000000000600082015250565b6000612b77600e836123bc565b9150612b8282612b41565b602082019050919050565b60006020820190508181036000830152612ba681612b6a565b9050919050565b7f4e487b7100000000000000000000000000000000000000000000000000000000600052601160045260246000fd5b6000612be78261246c565b9150612bf28361246c565b9250827fffffffffffffffffffffffffffffffffffffffffffffffffffffffffffffffff03821115612c2757612c26612bad565b5b828201905092915050565b6000608082019050612c476000830187612617565b612c546020830186612617565b612c616040830185612617565b612c6e6060830184612653565b95945050505050565b7f4552433732313a20617070726f76616c20746f2063757272656e74206f776e6560008201527f7200000000000000000000000000000000000000000000000000000000000000602082015250565b6000612cd36021836123bc565b9150612cde82612c77565b604082019050919050565b60006020820190508181036000830152612d0281612cc6565b9050919050565b7f4552433732313a20617070726f76652063616c6c6572206973206e6f74206f7760008201527f6e6572206e6f7220617070726f76656420666f7220616c6c0000000000000000602082015250565b6000612d656038836123bc565b9150612d7082612d09565b604082019050919050565b60006020820190508181036000830152612d9481612d58565b9050919050565b7f4552433732313a207472616e736665722063616c6c6572206973206e6f74206f60008201527f776e6572206e6f7220617070726f766564000000000000000000000000000000602082015250565b6000612df76031836123bc565b9150612e0282612d9b565b604082019050919050565b60006020820190508181036000830152612e2681612dea565b9050919050565b7f4552433732313a206f776e657220717565727920666f72206e6f6e657869737460008201527f656e7420746f6b656e0000000000000000000000000000000000000000000000602082015250565b6000612e896029836123bc565b9150612e9482612e2d565b604082019050919050565b60006020820190508181036000830152612eb881612e7c565b9050919050565b7f4552433732313a2062616c616e636520717565727920666f7220746865207a6560008201527f726f206164647265737300000000000000000000000000000000000000000000602082015250565b6000612f1b602a836123bc565b9150612f2682612ebf565b604082019050919050565b60006020820190508181036000830152612f4a81612f0e565b9050919050565b7f4f776e61626c653a2063616c6c6572206973206e6f7420746865206f776e6572600082015250565b6000612f876020836123bc565b9150612f9282612f51565b602082019050919050565b60006020820190508181036000830152612fb681612f7a565b9050919050565b6000606082019050612fd26000830186612617565b612fdf6020830185612617565b612fec6040830184612501565b949350505050565b7f4d697373696e6720696d6167652e000000000000000000000000000000000000600082015250565b600061302a600e836123bc565b915061303582612ff4565b602082019050919050565b600060208201905081810360008301526130598161301d565b9050919050565b7f4d697373696e67206465736372697074696f6e2e000000000000000000000000600082015250565b60006130966014836123bc565b91506130a182613060565b602082019050919050565b600060208201905081810360008301526130c581613089565b9050919050565b6000819050919050565b6000819050919050565b60006130fb6130f66130f1846130cc565b6130d6565b61246c565b9050919050565b61310b816130e0565b82525050565b600060c0820190506131266000830189612617565b81810360208301526131388188612411565b9050818103604083015261314c8187612411565b905061315b6060830186613102565b6131686080830185612617565b61317560a0830184612653565b979650505050505050565b600061318b8261246c565b91507fffffffffffffffffffffffffffffffffffffffffffffffffffffffffffffffff8214156131be576131bd612bad565b5b600182019050919050565b7f45524337323155524953746f726167653a2055524920717565727920666f722060008201527f6e6f6e6578697374656e7420746f6b656e000000000000000000000000000000602082015250565b60006132256031836123bc565b9150613230826131c9565b604082019050919050565b6000602082019050818103600083015261325481613218565b9050919050565b600081905092915050565b6000613271826123b1565b61327b818561325b565b935061328b8185602086016123cd565b80840191505092915050565b60006132a38285613266565b91506132af8284613266565b91508190509392505050565b7f4f776e61626c653a206e6577206f776e657220697320746865207a65726f206160008201527f6464726573730000000000000000000000000000000000000000000000000000602082015250565b60006133176026836123bc565b9150613322826132bb565b604082019050919050565b600060208201905081810360008301526133468161330a565b9050919050565b7f4552433732313a206f70657261746f7220717565727920666f72206e6f6e657860008201527f697374656e7420746f6b656e0000000000000000000000000000000000000000602082015250565b60006133a9602c836123bc565b91506133b48261334d565b604082019050919050565b600060208201905081810360008301526133d88161339c565b9050919050565b7f4552433732313a207472616e736665722066726f6d20696e636f72726563742060008201527f6f776e6572000000000000000000000000000000000000000000000000000000602082015250565b600061343b6025836123bc565b9150613446826133df565b604082019050919050565b6000602082019050818103600083015261346a8161342e565b9050919050565b7f4552433732313a207472616e7366657220746f20746865207a65726f2061646460008201527f7265737300000000000000000000000000000000000000000000000000000000602082015250565b60006134cd6024836123bc565b91506134d882613471565b604082019050919050565b600060208201905081810360008301526134fc816134c0565b9050919050565b600061350e8261246c565b91506135198361246c565b92508282101561352c5761352b612bad565b5b828203905092915050565b7f4552433732313a20617070726f766520746f2063616c6c657200000000000000600082015250565b600061356d6019836123bc565b915061357882613537565b602082019050919050565b6000602082019050818103600083015261359c81613560565b9050919050565b7f4552433732313a207472616e7366657220746f206e6f6e20455243373231526560008201527f63656976657220696d706c656d656e7465720000000000000000000000000000602082015250565b60006135ff6032836123bc565b915061360a826135a3565b604082019050919050565b6000602082019050818103600083015261362e816135f2565b9050919050565b7f4552433732314d657461646174613a2055524920717565727920666f72206e6f60008201527f6e6578697374656e7420746f6b656e0000000000000000000000000000000000602082015250565b6000613691602f836123bc565b915061369c82613635565b604082019050919050565b600060208201905081810360008301526136c081613684565b9050919050565b600081519050919050565b600082825260208201905092915050565b60006136ee826136c7565b6136f881856136d2565b93506137088185602086016123cd565b61371181612400565b840191505092915050565b60006080820190506137316000830187612501565b61373e6020830186612501565b61374b6040830185612617565b818103606083015261375d81846136e3565b905095945050505050565b60008151905061377781612322565b92915050565b600060208284031215613793576137926122ec565b5b60006137a184828501613768565b91505092915050565b7f4e487b7100000000000000000000000000000000000000000000000000000000600052601260045260246000fd5b60006137e48261246c565b91506137ef8361246c565b9250826137ff576137fe6137aa565b5b828204905092915050565b60006138158261246c565b91506138208361246c565b9250826138305761382f6137aa565b5b828206905092915050565b7f4e487b7100000000000000000000000000000000000000000000000000000000600052603260045260246000fdfea264697066735822122024e69f8b947be6209f3aba4587b7eb576a9ea3c7919cca6c9a13d3e506ddcd0c64736f6c634300080c0033",
  "immutableReferences": {},
  "source": "// SPDX-License-Identifier: MIT\npragma solidity >=0.7.0 <0.9.0;\n\nimport \"@openzeppelin/contracts/access/Ownable.sol\";\nimport \"@openzeppelin/contracts/token/ERC721/extensions/ERC721URIStorage.sol\";\n\ncontract ImageShowcase is Ownable, ERC721URIStorage {\n  mapping(uint256 => Image) public images;\n  uint256 public imageCount;\n\n  struct Image {\n    uint256 id;\n    string hash;\n    string description;\n    uint256 tipAmount;\n    uint256 timestamp;\n    address payable author;\n  }\n\n  event ImageCreated(\n    uint256 id,\n    string hash,\n    string description,\n    uint256 tipAmount,\n    uint256 timestamp,\n    address payable author\n  );\n\n  event ImageTipped(\n    uint256 id,\n    uint256 tipAmount,\n    uint256 timestamp,\n    address payable author\n  );\n\n  event ImageRemoved(\n    uint256 id,\n    uint256 timestamp,\n    address author\n  );\n\n  constructor() ERC721(\"ImageShowcase\", \"DAPP\") {}\n\n  function uploadImage(string memory _hash, string memory _description) public {\n    require(bytes(_hash).length > 0, \"Missing image.\");\n    require(bytes(_description).length > 0, \"Missing description.\");\n    images[imageCount] = Image(imageCount, _hash, _description, 0, block.timestamp, payable(msg.sender));\n    emit ImageCreated(imageCount, _hash, _description, 0, block.timestamp, payable(msg.sender));\n    imageCount++;\n  }\n\n  function tipImage(uint256 _id) public payable {\n    Image memory _image = images[_id];\n    require(_image.timestamp > 0, \"Invalid image.\");\n    address payable _author = _image.author;\n    payable(_author).transfer(msg.value);\n    _image.tipAmount = _image.tipAmount + msg.value;\n    images[_id] = _image;\n    emit ImageTipped(_id, _image.tipAmount, block.timestamp, _author);\n  }\n\n  function removeImage(uint256 _id) public onlyOwner {\n    address _author = images[_id].author;\n    delete images[_id];\n    emit ImageRemoved(_id, block.timestamp, _author);\n  }\n}",
  "sourcePath": "/var/www/html/solidity-images/contracts/ImageShowcase.sol",
  "compiler": {
    "name": "solc",
    "version": "0.8.12+commit.f00d7308.Emscripten.clang"
  },
  "schemaVersion": "3.4.6",
  "updatedAt": "2022-05-09T19:06:06.670Z",
  "networkType": "ethereum",
  "devdoc": {
    "kind": "dev",
    "methods": {
      "approve(address,uint256)": {
        "details": "See {IERC721-approve}."
      },
      "balanceOf(address)": {
        "details": "See {IERC721-balanceOf}."
      },
      "getApproved(uint256)": {
        "details": "See {IERC721-getApproved}."
      },
      "isApprovedForAll(address,address)": {
        "details": "See {IERC721-isApprovedForAll}."
      },
      "name()": {
        "details": "See {IERC721Metadata-name}."
      },
      "owner()": {
        "details": "Returns the address of the current owner."
      },
      "ownerOf(uint256)": {
        "details": "See {IERC721-ownerOf}."
      },
      "renounceOwnership()": {
        "details": "Leaves the contract without owner. It will not be possible to call `onlyOwner` functions anymore. Can only be called by the current owner. NOTE: Renouncing ownership will leave the contract without an owner, thereby removing any functionality that is only available to the owner."
      },
      "safeTransferFrom(address,address,uint256)": {
        "details": "See {IERC721-safeTransferFrom}."
      },
      "safeTransferFrom(address,address,uint256,bytes)": {
        "details": "See {IERC721-safeTransferFrom}."
      },
      "setApprovalForAll(address,bool)": {
        "details": "See {IERC721-setApprovalForAll}."
      },
      "supportsInterface(bytes4)": {
        "details": "See {IERC165-supportsInterface}."
      },
      "symbol()": {
        "details": "See {IERC721Metadata-symbol}."
      },
      "tokenURI(uint256)": {
        "details": "See {IERC721Metadata-tokenURI}."
      },
      "transferFrom(address,address,uint256)": {
        "details": "See {IERC721-transferFrom}."
      },
      "transferOwnership(address)": {
        "details": "Transfers ownership of the contract to a new account (`newOwner`). Can only be called by the current owner."
      }
    },
    "version": 1
  },
  "userdoc": {
    "kind": "user",
    "methods": {},
    "version": 1
  }
}